{
  "contractName": "Radical",
  "abi": [
    {
      "constant": true,
      "inputs": [],
      "name": "pixelCount",
      "outputs": [
        {
          "name": "",
          "type": "uint256"
        }
      ],
      "payable": false,
      "stateMutability": "view",
      "type": "function"
    },
    {
      "constant": true,
      "inputs": [
        {
          "name": "",
          "type": "uint256"
        }
      ],
      "name": "pixels",
      "outputs": [
        {
          "name": "id",
          "type": "uint256"
        },
        {
          "name": "owner",
          "type": "address"
        },
        {
          "name": "color",
          "type": "string"
        },
        {
          "name": "opacity",
          "type": "uint256"
        },
        {
          "name": "price",
          "type": "uint256"
        }
      ],
      "payable": false,
      "stateMutability": "view",
      "type": "function"
    },
    {
      "inputs": [],
      "payable": false,
      "stateMutability": "nonpayable",
      "type": "constructor"
    },
    {
      "anonymous": false,
      "inputs": [
        {
          "indexed": true,
          "name": "_pixelId",
          "type": "uint256"
        }
      ],
      "name": "soldEvent",
      "type": "event"
    },
    {
      "constant": false,
      "inputs": [
        {
          "name": "_pixelId",
          "type": "uint256"
        },
        {
          "name": "_newOwner",
          "type": "address"
        }
      ],
      "name": "purchase",
      "outputs": [],
      "payable": false,
      "stateMutability": "nonpayable",
      "type": "function"
    }
  ],
  "bytecode": "0x6080604052606460005534801561001557600080fd5b50610030611235610069640100000000026401000000009004565b61004a615367610069640100000000026401000000009004565b610064618947610069640100000000026401000000009004565b610235565b60026000815480929190600101919050555060a06040519081016040528060025481526020018273ffffffffffffffffffffffffffffffffffffffff1681526020016040805190810160405280600781526020017f23393939396666000000000000000000000000000000000000000000000000008152508152602001605081526020016000548152506001600060025481526020019081526020016000206000820151816000015560208201518160010160006101000a81548173ffffffffffffffffffffffffffffffffffffffff021916908373ffffffffffffffffffffffffffffffffffffffff1602179055506040820151816002019080519060200190610175929190610190565b50606082015181600301556080820151816004015590505050565b828054600181600116156101000203166002900490600052602060002090601f016020900481019282601f106101d157805160ff19168380011785556101ff565b828001600101855582156101ff579182015b828111156101fe5782518255916020019190600101906101e3565b5b50905061020c9190610210565b5090565b61023291905b8082111561022e576000816000905550600101610216565b5090565b90565b610368806102446000396000f300608060405260043610610057576000357c0100000000000000000000000000000000000000000000000000000000900463ffffffff16806373d3e6d71461005c5780638da7f23214610087578063ae77c23714610175575b600080fd5b34801561006857600080fd5b506100716101c2565b6040518082815260200191505060405180910390f35b34801561009357600080fd5b506100b2600480360381019080803590602001909291905050506101c8565b604051808681526020018573ffffffffffffffffffffffffffffffffffffffff1673ffffffffffffffffffffffffffffffffffffffff16815260200180602001848152602001838152602001828103825285818151815260200191508051906020019080838360005b8381101561013657808201518184015260208101905061011b565b50505050905090810190601f1680156101635780820380516001836020036101000a031916815260200191505b50965050505050505060405180910390f35b34801561018157600080fd5b506101c060048036038101908080359060200190929190803573ffffffffffffffffffffffffffffffffffffffff1690602001909291905050506102b6565b005b60025481565b60016020528060005260406000206000915090508060000154908060010160009054906101000a900473ffffffffffffffffffffffffffffffffffffffff1690806002018054600181600116156101000203166002900480601f0160208091040260200160405190810160405280929190818152602001828054600181600116156101000203166002900480156102a05780601f10610275576101008083540402835291602001916102a0565b820191906000526020600020905b81548152906001019060200180831161028357829003601f168201915b5050505050908060030154908060040154905085565b806001600084815260200190815260200160002060010160006101000a81548173ffffffffffffffffffffffffffffffffffffffff021916908373ffffffffffffffffffffffffffffffffffffffff160217905550817f502bbb2026cfbded42c318256e02a9a474a68233e156a58a2402d249259f41bb60405160405180910390a250505600a165627a7a72305820feebece5edbf29a74ae278b34bcb829ad0c65deb5ab39a295d516744df06b9e80029",
  "source": "pragma solidity ^0.4.2;\n\ncontract Radical {\n\n    struct Pixel {\n        uint256 id;\n        address owner;\n        string color;\n        uint opacity;\n        uint price;\n    }\n\n    uint256 defaultPrice = 100;\n\n    mapping(uint => Pixel) public pixels;\n\n    uint public pixelCount;\n\n    // voted event\n    event soldEvent (\n        uint indexed _pixelId\n    );\n\n    function Radical () public {\n        addPixel(0x1235);\n        addPixel(0x5367);\n        addPixel(0x8947);\n\n    }\n\n    function addPixel (address _owner) private {\n        pixelCount ++;\n        \n        pixels[pixelCount] = Pixel(pixelCount, _owner, \"#9999ff\", 80, defaultPrice);\n    }\n\n    function purchase(uint256 _pixelId, address _newOwner) public {\n\n        pixels[_pixelId].owner = _newOwner;\n\n        emit soldEvent(_pixelId);\n    }\n}\n",
  "sourcePath": "/Users/mike/code/election_react/contracts/Radical.sol",
  "compiler": {
    "name": "solc",
    "version": "0.4.24+commit.e67f0147.Emscripten.clang"
  },
  "schemaVersion": "2.0.1",
  "updatedAt": "2018-10-06T17:15:32.211Z"
}